:020000040000FA
:100000000C9434000C9451000C9451000C94510049
:100010000C9451000C9451000C9451000C9451001C
:100020000C9451000C9451000C9451000C94B200AB
:100030000C9451000C9451000C9451000C945100FC
:100040000C9451000C9451000C9451000C945100EC
:100050000C9451000C9451000C9451000C945100DC
:100060000C9451000C94510011241FBECFEFD8E026
:10007000DEBFCDBF11E0A0E0B1E0EEEDFAE002C0DE
:1000800005900D92A436B107D9F721E0A4E6B1E0BE
:1000900001C01D92A238B207E1F70E94CC000C9477
:1000A0006D050C94000084EC8093BC008091BC0032
:1000B00087FFFCCF8091BB0008958093BB0084E84C
:1000C0008093BC008091BC0087FFFCCF089584EA38
:1000D0008093BC008091BC0087FFFCCF0895CF9334
:1000E000DF93D82FC82FC8600E94670080E40E9469
:1000F0005D008C2F0E945D008D2F8C600E945D0042
:1001000085E08A95F1F700008C2F0E945D0084E95C
:100110008093BC00DF91CF910895CF93C82F807F4B
:1001200081600E946F0020E1C29FC00111248160A4
:10013000CF910C946F00CF93DF93EC0189918111E3
:1001400003C0DF91CF9108950E948D00F7CFCF9328
:10015000C82F807F0E946F008C2F8295807FCF9167
:100160000C946F001F920F920FB60F9211248F9371
:10017000809164018F5F8093640180916401853078
:1001800028F01092640181E0809381018F910F909B
:100190000FBE0F901F901895CF93DF93CDB7DEB7AA
:1001A0006D970FB6F894DEBF0FBECDBF0FB6F894B3
:1001B000A895809160008861809360001092600033
:1001C0000FBEF89480E880936100109261008FEF79
:1001D00084B915B81092B90088E48093B80084E01F
:1001E0008093BC0010928000109281008091810069
:1001F000846080938100809181008D7F8093810055
:10020000809181008160809381008091810088606D
:1002100080938100109285001092840089E09DE314
:10022000909389008093880080916F008260809312
:100230006F0078942FEF30E742E02150304040408B
:10024000E1F700C0000083E00E94A70082E00E9466
:10025000A7008FE39FE10197F1F700C0000088E25B
:100260000E94A7008CE00E94A70086E00E94A700E1
:1002700081E00E94A700E7ECF0E03197F1F700C0C1
:10028000000080E40E94A700B0E0CB2EB1E0DB2E9E
:1002900016E0F12E10E000E0F601E00FF11F808182
:1002A0000E948D000F5F1F4F08301105A9F7FA94C7
:1002B000F8E0CF0ED11CF110EDCF80E80E94A7002E
:1002C0000E9467008CEE0E945D0084EF0E945D003A
:1002D00087E20E945D0084E98093BC000E94670071
:1002E0008CEE0E945D0088E80E945D000E9467001D
:1002F0008DEE0E945D009E012F5F3F4F79016E01E0
:1003000038E1C30ED11C1E2D0F2D0E945300F701A2
:1003100081937F01EC15FD05C1F784E88093BC0053
:100320008091BC0087FFFCCF8091BB0094E9909343
:10033000BC0029813A8130936601209365012B81AD
:100340003C8130936801209367012D813E81309379
:100350006A01209369012F81388530936C012093C5
:100360006B0129853A8530936E0120936D012B85B1
:100370003C853093700120936F012D853E8530932D
:100380007201209371012F85388930937401209375
:10039000730129893A8930937601209375012B895D
:1003A0003C8930937801209377012D893E893093E1
:1003B0007A01209379019F8989279827892790932B
:1003C0007C0180937B0183E80E94A70080E391E099
:1003D0000E949B00FFEF27EA31E6F15020403040B9
:1003E000E1F700C0000081E00E94A70087EC90E0E8
:1003F0000197F1F700C0000084E80E94A7008BE39A
:1004000091E00E949B0080EC0E94A70084E491E0B0
:100410000E949B00809181018823E1F31092810169
:100420000E9467008CEE0E945D0087EF0E945D00D5
:100430000E9467008DEE0E945D000E9453008D8F28
:100440000E945300382E0E945300282E0E94530011
:10045000F82E0E94530094E89093BC009091BC0049
:1004600097FFFCCF6091BB00E4E9E093BC002F2D27
:1004700030E050E040E0ACE0220F331F441F551F36
:10048000AA95D1F790E0B0E0A0E074E0880F991F42
:10049000AA1FBB1F7A95D1F7822B932BA42BB52BC8
:1004A000262F22952F706C017D01C22AA70196018B
:1004B000C0906501D0906601F12CE12C49015A01F0
:1004C000E4E0B594A79497948794EA95D1F78C18B3
:1004D0009D08AE08BF08F3E05595479537952795D9
:1004E000FA95D1F7CC0CDD1CEE1CFF1C2C193D0934
:1004F0004E095F09A0916701B09168010E945605FD
:100500002B013C01BBE07594679457944794BA95CE
:10051000D1F7A5019401C501B4010E94FA049B0121
:10052000AC018CE055954795379527958A95D1F77D
:10053000A0916901B0916A010E9456056B017C018E
:100540009EE0F594E794D794C7949A95D1F7C40C9C
:10055000D51CE61CF71CC0927D01D0927E01E09272
:100560007F01F0928001A5E0B0E0A70196010E9412
:100570004B054B015C0120E8820E911CA11CB11CB3
:10058000892C9A2CAB2CBB24A7FCBA94F594E79445
:10059000D794C7943AEFD31AE108F108C701B6011E
:1005A00042E095958795779567954A95D1F79B0198
:1005B000AC010E94FA04698F7A8F8B8F9C8FA09177
:1005C0006F01B09170019B01AC016DE055954795AD
:1005D000379527956A95D1F70E9456052B013C0166
:1005E00073E075946794579447947A95D1F7A091E6
:1005F0006D01B0916E01A70196010E9456059B0105
:10060000AC015595479537952795240D351D461D09
:10061000571DF2E15595479537952795FA95D1F7EE
:1006200030584F4F5F4FA0916B01B0916C010E9409
:100630004B052B013C01AFE07594679457944794A8
:10064000AA95D1F7411451046104710409F47EC1E3
:10065000298D3A8D4B8D5C8D6BE05595479537957F
:1006600027956A95D1F7A0917501B09176010E9406
:100670005605698F7A8F8B8F9C8FA0917301B091F3
:100680007401A70196010E945605DC01CB01880F79
:10069000991FAA1FBB1FC98CDA8CEB8CFC8C8C0DAC
:1006A0009D1DAE1DBF1DE2E0B595A7959795879559
:1006B000EA95D1F7232D30E050E040E0F4E0220F3E
:1006C000331F441F551FFA95D1F722946FE026225D
:1006D00022296D8DC62ED12CF12CE12C7CE0CC0C86
:1006E000DD1CEE1CFF1C7A95D1F72C293D294E29E3
:1006F0005F29C0907101D09072010D2C000CEE08A2
:10070000FF087601DD24CC248C0D9D1DAE1DBF1D80
:10071000FCE0B595A79597958795FA95D1F7280FA1
:10072000391F4A1F5B1FABECB3EF0E945905805B7A
:100730009C4397FD00C1660F771F881F991FA30177
:1007400092010E940A0529013A01C301B20123E086
:1007500096958795779567952A95D1F79B01AC017A
:100760000E94FA049B01AC016DE0569547953795C0
:1007700027956A95D1F7A0917B01B0917C010E94E9
:1007800056056B017C017CE0F594E794D794C794FF
:100790007A95D1F7A3019201E2E0569547953795F6
:1007A0002795EA95D1F7A0917901B0917A010E943D
:1007B0005605FDE09595879577956795FA95D1F75C
:1007C000C60ED71EE81EF91E809177019091780120
:1007D000092E000CAA0BBB0B8C0D9D1DAE1DBF1D61
:1007E0006C017D01A4E0F594E794D794C794AA9591
:1007F000D1F74C0C5D1C6E1C7F1C8CEA88168DE0BA
:100800009806A104B1040CF4A5C0289A99EA4916E7
:1008100095EC59066104710408F49EC0299881E0A2
:100820000E94A700E7ECF0E03197F1F700C000006C
:1008300080E80E94A70085E591E00E949B00B7FE3A
:100840000BC08DE20E948D00B094A094909480948F
:10085000811C911CA11CB11CC501B40124E630E02F
:1008600040E050E00E942C0549015A016B017C01D7
:100870002AE030E0412F502FC501B4010E94AE04A0
:10088000812F902F0E949B008EE20E948D00FAE043
:10089000CF16D104E104F1041CF480E30E948D0022
:1008A0002AE030E0412F502FC701B6010E94AE046C
:1008B000812F902F0E949B008FED0E948D0089E573
:1008C00091E00E949B00C301B20124E630E040E0C9
:1008D00050E00E940A05CA01B9012AE030E0412F28
:1008E000502F0E94AE0480EC0E94A7008BE591E09F
:1008F0000E949B00812F902F0E949B008FE591E02A
:100900000E949B008DE80E94A70080E00E948D005D
:1009100081E00E948D0082E00E948D008DEC0E949B
:10092000A70083E00E948D0084E00E948D0085E096
:100930000E948D006FCDA30192010E940A0529013A
:100940003A01440C551C661C771CFFCE412C512CDF
:10095000320153CF28985ACF299A61CF25323105D9
:1009600020F4223010F00C94B904FA011082CA016C
:100970000895BB272A3051F4992342F4BDE29095A3
:100980008095709561957F4F8F4F9F4F0C94C90450
:10099000BB27FA01A62F6217710581059105330B5C
:1009A00030FB66F0AA27660F771F881F991FAA1FC2
:1009B000A21710F0A21B63953850A9F7A05DAA33C7
:1009C00008F0A95DA19336F7B111B1931082CA0165
:1009D0000C94EA04DC01FC01672F71917723E1F7A5
:1009E000329704C07C916D9370836291AE17BF07FC
:1009F000C8F30895DB018F939F930E944B05BF912D
:100A0000AF91A29F800D911DA39F900DB29F900D5D
:100A100011240895A1E21A2EAA1BBB1BFD010DC0D3
:100A2000AA1FBB1FEE1FFF1FA217B307E407F5079E
:100A300020F0A21BB30BE40BF50B661F771F881F7A
:100A4000991F1A9469F760957095809590959B0110
:100A5000AC01BD01CF010895052E97FB1EF4009453
:100A60000E94430557FD07D00E940A0507FC03D0EA
:100A70004EF40C94430550954095309521953F4F89
:100A80004F4F5F4F089590958095709561957F4F7A
:100A90008F4F9F4F08950E945E05A59F900DB49FB4
:100AA000900DA49F800D911D11240895B7FF0C9403
:100AB0004B050E944B05821B930B0895A29FB0012A
:100AC000B39FC001A39F700D811D1124911DB29F82
:100AD000700D811D1124911D0895F894FFCF01031D
:100AE000030E1C180808111F00001F11080410181D
:100AF000180E0703020208181C0E03030100081158
:100B00001F00001F11000203070E181810002D2DE2
:100B10002055464241202D2D0053697374656D6147
:100B200073004D6963726F636F6E74726F6C616492
:100B30006F7300543A20004300503A200020685060
:020B4000610052
:107E0000112484B714BE81FFF0D085E080938100F7
:107E100082E08093C00088E18093C10086E0809377
:107E2000C20080E18093C4008EE0C9D0259A86E02C
:107E300020E33CEF91E0309385002093840096BBD3
:107E4000B09BFECF1D9AA8958150A9F7CC24DD24C4
:107E500088248394B5E0AB2EA1E19A2EF3E0BF2EE7
:107E6000A2D0813461F49FD0082FAFD0023811F036
:107E7000013811F484E001C083E08DD089C08234E0
:107E800011F484E103C0853419F485E0A6D080C0E4
:107E9000853579F488D0E82EFF2485D0082F10E0AE
:107EA000102F00270E291F29000F111F8ED06801E7
:107EB0006FC0863521F484E090D080E0DECF843638
:107EC00009F040C070D06FD0082F6DD080E0C81688
:107ED00080E7D80618F4F601B7BEE895C0E0D1E017
:107EE00062D089930C17E1F7F0E0CF16F0E7DF06D8
:107EF00018F0F601B7BEE89568D007B600FCFDCFD4
:107F0000A601A0E0B1E02C9130E011968C91119780
:107F100090E0982F8827822B932B1296FA010C0160
:107F200087BEE89511244E5F5F4FF1E0A038BF0790
:107F300051F7F601A7BEE89507B600FCFDCF97BE46
:107F4000E89526C08437B1F42ED02DD0F82E2BD052
:107F50003CD0F601EF2C8F010F5F1F4F84911BD097
:107F6000EA94F801C1F70894C11CD11CFA94CF0C13
:107F7000D11C0EC0853739F428D08EE10CD085E9AC
:107F80000AD08FE07ACF813511F488E018D01DD067
:107F900080E101D065CF982F8091C00085FFFCCF94
:107FA0009093C60008958091C00087FFFCCF809118
:107FB000C00084FD01C0A8958091C6000895E0E648
:107FC000F0E098E1908380830895EDDF803219F02E
:107FD00088E0F5DFFFCF84E1DECF1F93182FE3DFCA
:107FE0001150E9F7F2DF1F91089580E0E8DFEE27F6
:047FF000FF270994CA
:027FFE00040479
:00000001FF
