:100000000C9434000C9451000C9451000C94510049
:100010000C9451000C9451000C9451000C9451001C
:100020000C9451000C9451000C9451000C94020556
:100030000C9451000C9451000C9451000C945100FC
:100040000C9451000C9451000C9451000C945100EC
:100050000C9451000C9451000C9451000C945100DC
:100060000C9451000C94510011241FBECFEFD8E026
:10007000DEBFCDBF11E0A0E0B1E0E6EAFFE002C0E4
:1000800005900D92A037B107D9F721E0A0E7B1E0C4
:1000900001C01D92AF38B207E1F70E941C050C9415
:1000A000D1070C94000084EC8093BC008091BC00CC
:1000B00087FFFCCF8091BB0008958093BB0084E84C
:1000C0008093BC008091BC0087FFFCCF089584EA38
:1000D0008093BC008091BC0087FFFCCF08953F92C5
:1000E0004F925F926F927F928F929F92AF92BF9248
:1000F000CF92DF92EF92FF920F931F93CF93DF93F4
:100100007C018B010E9467008CEE0E945D0087EFEE
:100110000E945D000E9467008DEE0E945D000E94BB
:100120005300382E0E945300C82F0E945300D82F2E
:100130000E945300D82E0E945300482F84E88093D9
:10014000BC008091BC0087FFFCCF2091BB0084E9FC
:100150008093BC008D2D90E0B0E0A0E03CE0880FE3
:10016000991FAA1FBB1F3A95D1F750E070E060E0DD
:10017000E4E0440F551F661F771FEA95D1F7842BE3
:10018000952BA62BB72B22952F70822B40917501B2
:100190005091760170E060E04C015D01F4E0B594AF
:1001A000A79497948794FA95D1F7841A950AA60A8A
:1001B000B70A23E0B595A795979587952A95D1F726
:1001C000440F551F661F771F2C013D01441A550A25
:1001D000660A770AA3019201A0917701B091780194
:1001E0000E94BA072B013C014BE075946794579429
:1001F00047944A95D1F7A5019401C501B4010E9425
:100200005E079B01AC016CE05595479537952795A6
:100210006A95D1F7A0917901B0917A010E94BA074D
:100220004B015C017EE0B594A794979487947A95EE
:10023000D1F7840C951CA61CB71C8092700190927B
:100240007101A0927201B0927301A5E0B0E0A50126
:1002500094010E94AF0760587F4F8F4F9F4F672FC9
:10026000782F892F992787FD9A95F70160837183ED
:100270008283938375016401F594E794D794C794BE
:10028000FAEFDF1AE108F108C701B601A2E095957F
:10029000879577956795AA95D1F79B01AC010E9448
:1002A0005E072B013C01A0917F01B0918001AC0160
:1002B0009B018DE055954795379527958A95D1F700
:1002C0000E94BA074B015C0193E0B594A794979400
:1002D00087949A95D1F7A0917D01B0917E01A701F5
:1002E00096010E94BA079B01AC0155954795379539
:1002F0002795280D391D4A1D5B1D72E155954795BF
:10030000379527957A95D1F730584F4F5F4FA09189
:100310007B01B0917C010E94AF074B015C01EFE0D3
:10032000B594A79497948794EA95D1F78114910492
:10033000A104B10409F4EFC0A30192018BE055952B
:100340004795379527958A95D1F7A0918501B0916A
:1003500086010E94BA072B013C01A0918301B09154
:100360008401A70196010E94BA07DC01CB01880F26
:10037000991FAA1FBB1F840D951DA61DB71D32E036
:10038000B595A795979587953A95D1F72C2F30E09D
:1003900050E040E064E0220F331F441F551F6A9570
:1003A000D1F7D295DF702D2B432C512C712C612C61
:1003B0007CE0440C551C661C771C7A95D1F72429E7
:1003C0003529462957294090810150908201052CFA
:1003D000000C66087708320155244424840D951DCD
:1003E000A61DB71D2C013D01FCE075946794579440
:1003F0004794FA95D1F7240D351D461D571DABECDA
:10040000B3EF0E94BD07805B9C4397FD79C0660FE8
:10041000771F881F991FA50194010E946E0749014B
:100420005A01C501B40123E09695879577956795A4
:100430002A95D1F79B01AC010E945E079B01AC019C
:100440006DE056954795379527956A95D1F7A09118
:100450008B01B0918C010E94BA076B017C017CE09A
:10046000F594E794D794C7947A95D1F7A5019401B0
:10047000E2E05695479537952795EA95D1F7A091F3
:100480008901B0918A010E94BA079B01AC01FDE08D
:100490005595479537952795FA95D1F72C0D3D1D24
:1004A0004E1D5F1DC0908701D09088010D2C000C5F
:1004B000EE08FF082C0D3D1D4E1D5F1DA4E0559557
:1004C000479537952795AA95D1F7820E931EA41EBE
:1004D000B51EF80180829182A282B382DF91CF9112
:1004E0001F910F91FF90EF90DF90CF90BF90AF9052
:1004F0009F908F907F906F905F904F903F90089566
:10050000A50194010E946E0749015A01880C991CAB
:10051000AA1CBB1C86CF812C912C5401DACFCF931F
:10052000DF93D82FC82FC8600E94670080E40E9424
:100530005D008C2F0E945D008D2F8C600E945D00FD
:1005400085E08A95F1F700008C2F0E945D0084E918
:100550008093BC00DF91CF910895CF93C82F807F07
:1005600081600E948F0220E1C29FC001112481603E
:10057000CF910C948F02CF93DF93EC01899181117D
:1005800003C0DF91CF9108950E94AD02F7CFCF93C2
:10059000DF93CDB7DEB72A970FB6F894DEBF0FBE54
:1005A000CDBF4D835E83992369F080E391E00E9483
:1005B000BB022A960FB6F894DEBF0FBECDBFDF9107
:1005C000CF9108958D814AE050E0BE016F5F7F4F6B
:1005D00090E00E94E206CE0101960E94BB028EE2EC
:1005E0000E94AD028E814AE050E0BE016F5F7F4FF6
:1005F00090E00E94E206CE0101960E94BB0282E3D7
:1006000091E0D5CFCF93DF9300D000D000D0CDB70D
:10061000DEB724E630E040E050E00E946E07CA01F9
:10062000B9012AE030E0AE014F5F5F4F0E94F8064B
:10063000CE0101960E94BB0285E391E00E94BB02BD
:1006400026960FB6F894DEBF0FBECDBFDF91CF91D7
:1006500008958F929F92AF92BF92CF92DF92EF92C6
:10066000FF92CF93DF93CDB7DEB728970FB6F894FC
:10067000DEBF0FBECDBF6B017C01F7FE0BC08DE26C
:100680000E94AD02F094E094D094C094C11CD11C9F
:10069000E11CF11CC701B60124E630E040E050E067
:1006A0000E94900749015A016B017C012AE030E069
:1006B000AE014F5F5F4FC501B4010E94F806CE0145
:1006C00001960E94BB028EE20E94AD022AE030E059
:1006D000AE014F5F5F4FC701B6010E94F8068AE086
:1006E000C816D104E104F10424F48AE391E00E94E5
:1006F000BB02CE0101960E94BB028FED0E94AD02AB
:100700008CE391E00E94BB0228960FB6F894DEBFFE
:100710000FBECDBFDF91CF91FF90EF90DF90CF90D4
:10072000BF90AF909F908F900895CF93C82F807FF8
:100730000E948F028C2F8295807FCF910C948F0224
:1007400081E00E94950387EC90E00197F1F700C0EB
:10075000000008954F925F926F927F928F929F92C6
:10076000AF92BF92CF92DF92EF92FF920F931F93BF
:10077000CF93DF9300D000D000D0CDB7DEB74B01D0
:100780005C0129013A01C982DA82EB82FC820D8385
:100790001E830E94A00380918E01813009F449C01C
:1007A00088F1823009F460C08CE80E94950380E0F3
:1007B0000E94AD0281E00E94AD0282E00E94AD0283
:1007C0008CEC0E94950383E00E94AD0284E00E94BD
:1007D000AD0285E026960FB6F894DEBF0FBECDBF02
:1007E000DF91CF911F910F91FF90EF90DF90CF900D
:1007F000BF90AF909F908F907F906F905F904F9041
:100800000C94AD0280E80E9495038EE391E00E9473
:10081000BB02C501B4010E94290380EC0E9495032C
:1008200082E491E00E94BB02C301B2010E94020374
:10083000BBCF80E80E94950382E491E00E94BB0256
:10084000C301B2010E94020380EC0E94950386E47A
:1008500091E00E94BB0249815A816B817C818D812C
:100860009E810E94C702A0CF80E80E94950386E483
:1008700091E00E94BB0249815A816B817C818D810C
:100880009E810E94C70280EC0E9495038EE391E056
:100890000E94BB02C501B4010E94290385CF0F93BA
:1008A0001F93CF93DF93CDB7DEB72B970FB6F89496
:1008B000DEBF0FBECDBFFE01379685E0DF011D9282
:1008C0008A95E9F7409A389ABFEF21EE84E0B1505B
:1008D00020408040E1F700C0000040989FEFA9EF62
:1008E000B0E09150A040B040E1F700C00000409A55
:1008F00020EA2A95F1F73898409A4FB7F89488EC97
:1009000090E0309912C088EC90E0309B1AC088ECDF
:1009100090E030991DC0BE01645F7F4FA1E0B0E060
:1009200027E030E080E098EC1DC0A5E0AA95F1F743
:100930000000019731F74FBF19821A821B821C8277
:100940003EC0B5E0BA95F1F700000197F1F6F3CF9C
:1009500025E02A95F1F700000197D9F6ECCF9150E8
:1009600009F445C0309BFBCF95ED9A95F1F7000057
:10097000309B0AC08D01022E01C0000F0A94EAF7D5
:10098000802B98EC309931C02150310960F6819369
:10099000E617F70709F0C4CF4FBF5F814885398557
:1009A0002A858B85952F940F930F920F891321C061
:1009B000882321F1852F89834A833B832C8381E01F
:1009C0008D831E8229813A814B815C816D817E817C
:1009D00080E090E02B960FB6F894DEBF0FBECDBF3F
:1009E000DF91CF911F910F910895915059F680E0BA
:1009F000CECF20E030E040E080E0DDCF20E030E00E
:100A000040E0D9CF1F920F920FB60F9211248F930F
:100A1000809174018F5F809374018091740185309F
:100A200028F01092740181E080938D018F910F90D6
:100A30000FBE0F901F901895CF93DF93CDB7DEB701
:100A4000A0970FB6F894DEBF0FBECDBF0FB6F894D7
:100A5000A89580916000886180936000109260008A
:100A60000FBEF89480E880936100109261008FEFD0
:100A700084B915B852985A9A1092B90088E48093B4
:100A8000B80084E08093BC00109280001092810036
:100A900080918100856080938100809181008860D1
:100AA00080938100109285001092840089E09DE37C
:100AB000909389008093880080916F00826080937A
:100AC0006F0078942FEF80E792E0215080409040B3
:100AD000E1F700C0000083E00E94950382E00E94DD
:100AE0009503EFE3FFE13197F1F700C0000088E2E2
:100AF0000E9495038CE00E94950386E00E94950376
:100B00000E94A00380E40E94950380E0A82E81E06B
:100B1000B82E16E0D12CC12CF501EC0DFD1D808105
:100B20000E94AD02FFEFCF1ADF0A28E0C216D104FF
:100B300099F7115088E0A80EB11C1111EBCF80E895
:100B40000E9495030E9467008CEE0E945D0084EF76
:100B50000E945D0087E20E945D0084E98093BC00F2
:100B60000E9467008CEE0E945D0088E80E945D0094
:100B70000E9467008DEE0E945D008E010F5F1F4F87
:100B80006E0198E1C90ED11C0E945300F8018193B7
:100B90008F01EC15FD05C1F784E88093BC008091BE
:100BA000BC0087FFFCCF8091BB0094E99093BC0010
:100BB00029813A8130937601209375012B813C8104
:100BC00030937801209377012D813E8130937A0113
:100BD000209379012F81388530937C0120937B010C
:100BE00029853A8530937E0120937D012B853C85B4
:100BF0003093800120937F012D853E8530938201C3
:100C0000209381012F8538893093840120938301BB
:100C100029893A8930938601209385012B893C8963
:100C200030938801209387012D893E8930938A0172
:100C3000209389019F8989279827892790938C0180
:100C400080938B0183E80E9495038AE491E00E94DF
:100C5000BB02FFEF2BE584E4F15020408040E1F738
:100C600000C000000E94A00384E80E94950385E56F
:100C700091E00E94BB0280EC0E9495038EE591E01A
:100C80000E94BB029FEFEBE5F4E49150E040F0409E
:100C9000E1F700C000000E94A003198E1A8E1B8E7F
:100CA0001C8E1D8E1E8E1F8E18A2BE01635E7F4F8E
:100CB000CE0149960E946F000E944F04D32E7A0104
:100CC0008B0129833A834B83FC826D831E83B22E72
:100CD0002D8D3E8D4F8D58A1698D7A8D8B8D9C8D7C
:100CE000CB2C0E94AA034A9926C02FEF80E792E0FE
:100CF000215080409040E1F700C000004A991BC09D
:100D000080918E018F5F833008F053C080938E01F5
:100D10002D8D3E8D4F8D58A1698D7A8D8B8D9C8D3B
:100D2000B982CB2CDA80EB80FC800D811E810E9481
:100D3000AA034A9BFECF80918D018823A1F21092D5
:100D40008D01BE01635E7F4FCE0149960E946F0008
:100D50000E944F04C22E29833A834B835C836D83A8
:100D60007E83B22E898D9A8DAB8DBC8D8C3A9D4041
:100D7000A105B1050CF1289A8D8D9E8DAF8DB8A17E
:100D800081389843A140B105C8F029982DE12C1570
:100D9000B8F02A9A2D8D3E8D4F8D58A1698D7A8D90
:100DA0008B8D9C8DC982DA80EB80FC800D811E8149
:100DB00098CF10928E01ACCF2898DECF299AE6CF3B
:100DC0002A98E8CF4532510520F4423010F00C94B7
:100DD000ED06FB011082CB010895BB274A3031F4A8
:100DE000992322F4BDE2909581959F4F0C9435078D
:100DF0002532310520F4223010F00C940307FA015B
:100E00001082CA010895BB272A3051F4992342F475
:100E1000BDE290958095709561957F4F8F4F9F4F64
:100E20000C941307BB27FA01A62F621771058105E1
:100E30009105330B30FB66F0AA27660F771F881FDA
:100E4000991FAA1FA21710F0A21B63953850A9F78B
:100E5000A05DAA3308F0A95DA19336F7B111B19353
:100E60001082CA010C944E07BB27FB015527AA2705
:100E7000880F991FAA1FA41710F0A41B8395505127
:100E8000B9F7A05DAA3308F0A95DA193009779F79F
:100E9000B111B1931192CB010C944E07DC01FC010E
:100EA000672F71917723E1F7329704C07C916D939E
:100EB00070836291AE17BF07C8F30895DB018F936B
:100EC0009F930E94AF07BF91AF91A29F800D911D8C
:100ED000A39F900DB29F900D11240895A1E21A2EA8
:100EE000AA1BBB1BFD010DC0AA1FBB1FEE1FFF1FCE
:100EF000A217B307E407F50720F0A21BB30BE40B1E
:100F0000F50B661F771F881F991F1A9469F7609564
:100F10007095809590959B01AC01BD01CF0108951E
:100F2000052E97FB1EF400940E94A70757FD07D0DB
:100F30000E946E0707FC03D04EF40C94A70750954F
:100F40004095309521953F4F4F4F5F4F08959095B5
:100F50008095709561957F4F8F4F9F4F08950E94A8
:100F6000C207A59F900DB49F900DA49F800D911D69
:100F700011240895B7FF0C94AF070E94AF07821B9E
:100F8000930B0895A29FB001B39FC001A39F700D62
:100F9000811D1124911DB29F700D811D1124911D81
:060FA0000895F894FFCF54
:100FA6000103030E1C180808111F00001F11080476
:100FB6001018180E0703020208181C0E030301007E
:100FC60008111F00001F11000203070E1818100059
:100FD6002D2D202500206850610030004300543A32
:100FE6002000503A2000483A20002D2D2055464238
:100FF60041202D2D0053697374656D6173004D6931
:1010060063726F636F6E74726F6C61646F730000EE
:00000001FF
