:100000000C9434000C9451000C9451000C94510049
:100010000C9451000C9451000C9451000C9451001C
:100020000C9451000C9451000C9451000C942E052A
:100030000C9451000C9451000C9451000C945100FC
:100040000C9451000C9451000C9451000C945100EC
:100050000C9451000C9451000C9451000C945100DC
:100060000C9451000C94510011241FBECFEFD8E026
:10007000DEBFCDBF11E0A0E0B1E0E4ECFFE002C0E4
:1000800005900D92A037B107D9F721E0A0E7B1E0C4
:1000900001C01D92AF38B207E1F70E9448050C94E9
:1000A000E0070C94000084E88093BC0088E893E1AA
:1000B0002091BC0027FF03C08091BB00089525E07C
:1000C0002A95F1F70000019799F78FEF089584ECD6
:1000D0008093BC0088E893E12091BC0027FF03C017
:1000E0008091BB00089525E02A95F1F70000019763
:1000F00099F78FEF08958093BB0084E88093BC004C
:1001000088E893E12091BC0027FF02C080E00895B9
:1001100025E02A95F1F700000197A1F781E0089505
:1001200084EA8093BC0088E893E12091BC0027FF1B
:1001300002C080E0089525E02A95F1F700000197BC
:10014000A1F781E008953F924F925F926F927F9264
:100150008F929F92AF92BF92CF92DF92EF92FF92D7
:100160000F931F93CF93DF937C018B010E9490002C
:100170008CEE0E947B0087EF0E947B000E94900023
:100180008DEE0E947B000E946700382E0E9467005F
:10019000C82F0E946700D82F0E946700D82E0E94A7
:1001A0006700882E0E94530094E99093BC002D2D87
:1001B00030E050E040E0ACE0220F331F441F551FF9
:1001C000AA95D1F7912CB12CA12CB4E0880C991CE4
:1001D000AA1CBB1CBA95D1F7822A932AA42AB52A55
:1001E00082958F7024013501482AD301C2014091C4
:1001F00075015091760170E060E04C01530124E0FC
:10020000B594A794979487942A95D1F7841A950A60
:10021000A60AB70A33E0B595A795979587953A95BD
:10022000D1F7440F551F661F771F2C013D01441A5B
:10023000550A660A770AA3019201A0917701B0914D
:1002400078010E94C9072B013C01FBE0759467947B
:1002500057944794FA95D1F7A5019401C501B401CB
:100260000E946D079B01AC01ACE055954795379511
:100270002795AA95D1F7A0917901B0917A010E94B2
:10028000C9074B015C01BEE0B594A794979487948D
:10029000BA95D1F7840C951CA61CB71C80927001EE
:1002A00090927101A0927201B0927301A5E0B0E04A
:1002B000A50194010E94BE0760587F4F8F4F9F4F4A
:1002C000672F782F892F992787FD9A95F7016083EB
:1002D00071838283938375016401F594E794D794C5
:1002E000C794FAEFDF1AE108F108C701B60142E04E
:1002F00095958795779567954A95D1F79B01AC01C0
:100300000E946D072B013C01A0917F01B0918001FB
:10031000AC019B016DE055954795379527956A95FA
:10032000D1F70E94C9074B015C0173E0B594A79413
:10033000979487947A95D1F7A0917D01B0917E0131
:10034000A70196010E94C9079B01AC0155954795ED
:1003500037952795280D391D4A1D5B1DF2E15595EE
:10036000479537952795FA95D1F730584F4F5F4FFE
:10037000A0917B01B0917C010E94BE074B015C0102
:10038000AFE0B594A79497948794AA95D1F7811478
:100390009104A104B10409F4EFC0A30192018BE020
:1003A00055954795379527958A95D1F7A091850161
:1003B000B09186010E94C9072B013C01A0918301E5
:1003C000B0918401A70196010E94C907DC01CB010D
:1003D000880F991FAA1FBB1F840D951DA61DB71D51
:1003E00032E0B595A795979587953A95D1F72C2F3B
:1003F00030E050E040E064E0220F331F441F551FFF
:100400006A95D1F7D295DF702D2B432C512C712C8E
:10041000612C7CE0440C551C661C771C7A95D1F746
:10042000242935294629572940908101509082017D
:10043000052C000C66087708320155244424840DED
:10044000951DA61DB71D2C013D01FCE07594679418
:1004500057944794FA95D1F7240D351D461D571D25
:10046000ABECB3EF0E94CC07805B9C4397FD79C057
:10047000660F771F881F991FA50194010E947D07B1
:1004800049015A01C501B40123E0969587957795F6
:1004900067952A95D1F79B01AC010E946D079B01DE
:1004A000AC016DE056954795379527956A95D1F73C
:1004B000A0918B01B0918C010E94C9076B017C0156
:1004C0007CE0F594E794D794C7947A95D1F7A50189
:1004D0009401E2E05695479537952795EA95D1F72F
:1004E000A0918901B0918A010E94C9079B01AC01CA
:1004F000FDE05595479537952795FA95D1F72C0D41
:100500003D1D4E1D5F1DC0908701D09088010D2CB0
:10051000000CEE08FF082C0D3D1D4E1D5F1DA4E0D4
:100520005595479537952795AA95D1F7820E931E35
:10053000A41EB51EF80180829182A282B382DF914F
:10054000CF911F910F91FF90EF90DF90CF90BF90D0
:10055000AF909F908F907F906F905F904F903F9063
:100560000895A50194010E947D0749015A01880C54
:10057000991CAA1CBB1C86CF812C912C5401DACF6C
:10058000CF93DF93D82FC82FC8600E94900080E4DB
:100590000E947B008C2F0E947B008D2F8C600E941C
:1005A0007B0085E08A95F1F700008C2F0E947B008C
:1005B00084E98093BC00DF91CF910895CF93C82F39
:1005C000807F81600E94C00220E1C29FC00111248F
:1005D0008160CF910C94C002CF93DF93EC0189919D
:1005E000811103C0DF91CF9108950E94DE02F7CF01
:1005F000CF93C82F807F0E94C0028C2F8295807F6E
:10060000CF910C94C00281E00E94F80287EC90E048
:100610000197F1F700C0000008950F931F93CF9347
:10062000DF93CDB7DEB72B970FB6F894DEBF0FBEC2
:10063000CDBFFE01379685E0DF011D928A95E9F76F
:10064000409A389ABFEF21EE84E0B15020408040BC
:10065000E1F700C0000040989FEFA9EFB0E0915093
:10066000A040B040E1F700C00000409A20EA2A957F
:10067000F1F73898409A4FB7F89488EC90E03099A9
:1006800012C088EC90E0309B1AC088EC90E0309962
:100690001DC0BE01645F7F4FA1E0B0E027E030E005
:1006A00080E098EC1DC0A5E0AA95F1F70000019745
:1006B00031F74FBF19821A821B821C823EC0B5E0FF
:1006C000BA95F1F700000197F1F6F3CF25E02A95EE
:1006D000F1F700000197D9F6ECCF915009F445C02D
:1006E000309BFBCF95ED9A95F1F70000309B0AC047
:1006F0008D01022E01C0000F0A94EAF7802B98ECBE
:10070000309931C02150310960F68193E617F7071F
:1007100009F0C4CF4FBF5F81488539852A858B8515
:10072000952F940F930F920F891321C0882321F1E5
:10073000852F89834A833B832C8381E08D831E82AE
:1007400029813A814B815C816D817E8180E090E0DE
:100750002B960FB6F894DEBF0FBECDBFDF91CF91C1
:100760001F910F910895915059F680E0CECF20E06F
:1007700030E040E080E0DDCF20E030E040E0D9CF65
:10078000CF93DF93CDB7DEB72A970FB6F894DEBFCD
:100790000FBECDBF4D835E83992369F080E391E066
:1007A0000E94EC022A960FB6F894DEBF0FBECDBFB2
:1007B000DF91CF9108958D814AE0BE016F5F7F4F39
:1007C00090E00E940707CE0101960E94EC028EE2A3
:1007D0000E94DE028E814AE0BE016F5F7F4F90E093
:1007E0000E940707CE0101960E94EC0282E391E08D
:1007F000D7CFCF93DF9300D000D000D0CDB7DEB7F6
:1008000024E630E040E050E00E947D07CA01B901D3
:100810002AE0AE014F5F5F4F0E941207CE010196A2
:100820000E94EC0285E391E00E94EC0226960FB64E
:10083000F894DEBF0FBECDBFDF91CF9108958F92A8
:100840009F92AF92BF92CF92DF92EF92FF92CF939F
:10085000DF93CDB7DEB728970FB6F894DEBF0FBE93
:10086000CDBF6B017C01F7FE0BC08DE20E94DE0262
:10087000F094E094D094C094C11CD11CE11CF11CF4
:10088000C701B60124E630E040E050E00E949F0737
:1008900049015A016B017C012AE0AE014F5F5F4FB5
:1008A000C501B4010E941207CE0101960E94EC021C
:1008B0008EE20E94DE022AE0AE014F5F5F4FC70169
:1008C000B6010E9412078AE0C816D104E104F104BF
:1008D00024F48AE391E00E94EC02CE0101960E948A
:1008E000EC028FED0E94DE028CE391E00E94EC02AC
:1008F00028960FB6F894DEBF0FBECDBFDF91CF9123
:10090000FF90EF90DF90CF90BF90AF909F908F902F
:1009100008954F925F926F927F928F929F92AF92C3
:10092000BF92CF92DF92EF92FF920F931F93CF93DC
:10093000DF9300D000D000D0CDB7DEB74B015C0113
:1009400029013A01C982DA82EB82FC820D831E837F
:100950000E94030380918E01813009F449C088F11F
:10096000823009F460C08CE80E94F80280E00E94A6
:10097000DE0281E00E94DE0282E00E94DE028CEC58
:100980000E94F80283E00E94DE0284E00E94DE0200
:1009900085E026960FB6F894DEBF0FBECDBFDF917F
:1009A000CF911F910F91FF90EF90DF90CF90BF906C
:1009B000AF909F908F907F906F905F904F900C942E
:1009C000DE0280E80E94F8028EE391E00E94EC02D1
:1009D000C501B4010E941F0480EC0E94F80282E469
:1009E00091E00E94EC02C301B2010E94F903BBCF67
:1009F00080E80E94F80282E491E00E94EC02C301C8
:100A0000B2010E94F90380EC0E94F80286E491E0B2
:100A10000E94EC0249815A816B817C818D819E818B
:100A20000E94C003A0CF80E80E94F80286E491E013
:100A30000E94EC0249815A816B817C818D819E816B
:100A40000E94C00380EC0E94F8028EE391E00E94B5
:100A5000EC02C501B4010E941F0485CF1F920F92C2
:100A60000FB60F9211248F93809174018F5F809342
:100A7000740180917401853028F01092740181E036
:100A800080938D018F910F900FBE0F901F9018953E
:100A9000CF93DF93CDB7DEB7A0970FB6F894DEBF44
:100AA0000FBECDBF0FB6F894A89580916000886105
:100AB00080936000109260000FBEF89480E88093ED
:100AC0006100109261008FEF84B915B852985A9A5C
:100AD0001092B90088E48093B80084E08093BC0051
:100AE0001092800010928100809181008560809337
:100AF0008100809181008860809381001092850040
:100B00001092840089E09DE390938900809388008F
:100B100080916F00826080936F0078942FEF80E760
:100B200092E0215080409040E1F700C0000083E057
:100B30000E94F80282E00E94F802EFE3FFE13197A1
:100B4000F1F700C0000088E20E94F8028CE00E94E9
:100B5000F80286E00E94F8020E94030380E40E94EB
:100B6000F80280E0A82E81E0B82E16E0D12CC12C2E
:100B7000F501EC0DFD1D80810E94DE02FFEFCF1A12
:100B8000DF0A28E0C216D10499F7115088E0A80EB8
:100B9000B11C1111EBCF80E80E94F8020E94900076
:100BA0008CEE0E947B0084EF0E947B0087E20E9413
:100BB0007B0084E98093BC000E9490008CEE0E9430
:100BC0007B0088E80E947B000E9490008DEE0E94CE
:100BD0007B008E010F5F1F4F6E0198E1C90ED11C83
:100BE0000E946700F80181938F01EC15FD05C1F7A4
:100BF0000E94530094E99093BC0029813A8130937C
:100C00007601209375012B813C81309378012093EC
:100C100077012D813E8130937A01209379012F81D4
:100C2000388530937C0120937B0129853A85309368
:100C30007E0120937D012B853C853093800120939C
:100C40007F012D853E8530938201209381012F8580
:100C50003889309384012093830129893A8930931C
:100C60008601209385012B893C893093880120934C
:100C700087012D893E8930938A01209389019F89BC
:100C800089279827892790938C0180938B0183E88B
:100C90000E94F8028AE491E00E94EC02FFEF2BE54B
:100CA00084E4F15020408040E1F700C000000E9441
:100CB000030384E80E94F80285E591E00E94EC02BB
:100CC00080EC0E94F8028EE591E00E94EC029FEF1A
:100CD000EBE5F4E49150E040F040E1F700C00000A3
:100CE0000E940303198E1A8E1B8E1C8E1D8E1E8E63
:100CF0001F8E18A2BE01635E7F4FCE0149960E94EF
:100D0000A3000E940D03D32E7A018B0129833A831D
:100D10004B83FC826D831E83B22E2D8D3E8D4F8DB5
:100D200058A1698D7A8D8B8D9C8DCB2C0E94890466
:100D30004A9926C02FEF80E792E0215080409040F2
:100D4000E1F700C000004A991BC080918E018F5FBF
:100D5000833008F053C080938E012D8D3E8D4F8DD2
:100D600058A1698D7A8D8B8D9C8DB982CB2CDA80C0
:100D7000EB80FC800D811E810E9489044A9BFECF7E
:100D800080918D018823A1F210928D01BE01635ED6
:100D90007F4FCE0149960E94A3000E940D03C22EF0
:100DA00029833A834B835C836D837E83B22E898D46
:100DB0009A8DAB8DBC8D8C3A9D40A105B1050CF18F
:100DC000289A8D8D9E8DAF8DB8A181389843A14012
:100DD000B105C8F029982DE12C15B8F02A9A2D8D6F
:100DE0003E8D4F8D58A1698D7A8D8B8D9C8DC982DA
:100DF000DA80EB80FC800D811E8198CF10928E01ED
:100E0000ACCF2898DECF299AE6CF2A98E8CFBB2727
:100E10004A3031F4992322F4BDE2909581959F4F99
:100E20000C944407BB272A3051F4992342F4BDE2C5
:100E300090958095709561957F4F8F4F9F4F0C9443
:100E40002207BB27FA01A62F6217710581059105BC
:100E5000330B30FB66F0AA27660F771F881F991F98
:100E6000AA1FA21710F0A21B63953850A9F7A05D26
:100E7000AA3308F0A95DA19336F7B111B19310829E
:100E8000CA010C945D07BB27FB015527AA27880FD1
:100E9000991FAA1FA41710F0A41B83955051B9F7EE
:100EA000A05DAA3308F0A95DA193009779F7B1116D
:100EB000B1931192CB010C945D07DC01FC01672F0B
:100EC00071917723E1F7329704C07C916D93708321
:100ED0006291AE17BF07C8F30895DB018F939F930C
:100EE0000E94BE07BF91AF91A29F800D911DA39F4D
:100EF000900DB29F900D11240895A1E21A2EAA1B05
:100F0000BB1BFD010DC0AA1FBB1FEE1FFF1FA217B9
:100F1000B307E407F50720F0A21BB30BE40BF50BB6
:100F2000661F771F881F991F1A9469F7609570953F
:100F3000809590959B01AC01BD01CF010895052ED0
:100F400097FB1EF400940E94B60757FD07D00E943D
:100F50007D0707FC03D04EF40C94B60750954095DE
:100F6000309521953F4F4F4F5F4F08959095809555
:100F7000709561957F4F8F4F9F4F08950E94D107C5
:100F8000A59F900DB49F900DA49F800D911D1124DD
:100F90000895B7FF0C94BE070E94BE07821B930BF7
:100FA0000895A29FB001B39FC001A39F700D811D42
:100FB0001124911DB29F700D811D1124911D089562
:040FC000F894FFCFD3
:100FC4000103030E1C180808111F00001F11080458
:100FD4001018180E0703020208181C0E0303010060
:100FE40008111F00001F11000203070E181810003B
:100FF4002D2D202500206850610030004300543A14
:101004002000503A2000483A20002D2D2055464219
:1010140041202D2D0053697374656D6173004D6912
:1010240063726F636F6E74726F6C61646F730000D0
:00000001FF
