:100000000C9434000C9446000C9446000C9446006A
:100010000C9446000C9446000C9446000C94460048
:100020000C9446000C9446000C9446000C9464001A
:100030000C9446000C9446000C9446000C94460028
:100040000C9446000C9446000C9446000C94460018
:100050000C9446000C9446000C9446000C94460008
:100060000C9446000C94460011241FBECFEFD8E03C
:10007000DEBFCDBF21E0A0E0B1E001C01D92AE31F6
:10008000B207E1F70E947E000C94BA030C940000C2
:1000900084EC8093BC008091BC0087FFFCCF8091F2
:1000A000BB0008958093BB0084E88093BC008091DE
:1000B000BC0087FFFCCF089584EA8093BC00809148
:1000C000BC0087FFFCCF08951F920F920FB60F92CE
:1000D00011248F93809100018F5F809300018091A4
:1000E0000001853028F01092000181E080931D010D
:1000F0008F910F900FBE0F901F901895CF93DF93A5
:10010000CDB7DEB7A0970FB6F894DEBF0FBECDBF58
:100110000FB6F894A8958091600088618093600084
:10012000109260000FBEF89480E8809361001092F6
:1001300061008FEF84B915B81092B90088E48093FC
:10014000B80084E08093BC0010928000109281007F
:1001500080918100846080938100809181008D7FF7
:1001600080938100809181008160809381008091E3
:100170008100886080938100109285001092840035
:1001800089E09DE3909389008093880080916F00BF
:10019000826080936F0078940E945C008CEE0E94D5
:1001A000520084EF0E94520087E20E94520084E9CC
:1001B0008093BC000E945C008CEE0E94520088E894
:1001C0000E9452000E945C008DEE0E9452008E013F
:1001D0000F5F1F4F7E0128E1E20EF11C0E944800D4
:1001E000D8018D938D01AE15BF05C1F784E88093CA
:1001F000BC008091BC0087FFFCCF8091BB0094E9DC
:100200009093BC0029813A8130930201209301012F
:100210002B813C8130930401209303012D813E8189
:1002200030930601209305012F8138853093080112
:100230002093070129853A8530930A01209309010B
:100240002B853C8530930C0120930B012D853E8539
:1002500030930E0120930D012F85388930931001C2
:1002600020930F0129893A893093120120931101BB
:100270002B893C8930931401209313012D893E89E9
:1002800030931601209315019F8989279827892784
:100290009093180180931701F4E92F2E80911D018E
:1002A0008823E1F310921D010E945C008CEE0E94F5
:1002B000520087EF0E9452000E945C008DEE0E9467
:1002C00052000E944800382E0E944800182F0E94B9
:1002D0004800082F0E944800F82E0E944800482F2E
:1002E000B4E8B093BC008091BC0087FFFCCF2091A4
:1002F000BB002092BC008F2D90E0B0E0A0E03CE07D
:10030000880F991FAA1FBB1F3A95D1F750E070E0E4
:1003100060E0E4E0440F551F661F771FEA95D1F7B0
:10032000842B952BA62BB72B22952F70822B4091D7
:1003300001015091020170E060E04C015D01F4E0C8
:10034000B594A79497948794FA95D1F7841A950A4F
:10035000A60AB70A23E0B595A795979587952A959C
:10036000D1F7440F551F661F771F6C017D01C41A1A
:10037000D50AE60AF70AA7019601A0910301B091F8
:1003800004010E94A3036B017C014BE0F594E79408
:10039000D794C7944A95D1F7A5019401C501B4013A
:1003A0000E9466039B01AC016CE05595479537951B
:1003B00027956A95D1F7A0910501B09106010E9499
:1003C000A303EEE09595879577956795EA95D1F724
:1003D000C60ED71EE81EF91EC0921901D0921A014E
:1003E000E0921B01F0921C01A5E0B0E0A70196018C
:1003F0000E9498032B013C0120E8420E511C611C15
:10040000711CBB2777FCBA95A72D962D852D8D8F56
:100410009E8FAF8FB8A3F594E794D794C7949AEFC3
:10042000D91AE108F108C701B601B2E095958795A0
:1004300077956795BA95D1F79B01AC010E94660349
:100440002B013C01A0910B01B0910C01AC019B016F
:100450008DE055954795379527958A95D1F70E9458
:10046000A3034B015C0193E0B594A7949794879400
:100470009A95D1F7A0910901B0910A01A7019601BF
:100480000E94A3039B01AC0155954795379527958D
:10049000280D391D4A1D5B1D72E15595479537950D
:1004A00027957A95D1F730584F4F5F4FA0910701AC
:1004B000B09108010E9498034B015C01EFE0B594F4
:1004C000A79497948794EA95D1F781149104A10495
:1004D000B10409F4F3C0A30192018BE0559547954F
:1004E000379527958A95D1F7A0911101B091120106
:1004F0000E94A303698F7A8F8B8F9C8FA0910F012D
:10050000B0911001A70196010E94A303DC01CB0169
:10051000880F991FAA1FBB1FC98CDA8CEB8CFC8C2F
:100520008C0D9D1DAE1DBF1D6C017D0132E0F5944B
:10053000E794D794C7943A95D1F7212F30E050E053
:1005400040E064E0220F331F441F551F6A95D1F726
:1005500002950F70202B832D90E0B0E0A0E07CE0AE
:10056000880F991FAA1FBB1F7A95D1F7282B392B0B
:100570004A2B5B2B80910D0190910E01092E000CEE
:10058000AA0BBB0BDC01992788278C0D9D1DAE1D86
:10059000BF1DFCE0B595A79597958795FA95D1F77E
:1005A000280F391F4A1F5B1FABECB3EF0E94A60355
:1005B000805B9C4397FD77C0660F771F881F991F4C
:1005C000A50194010E94760349015A01C501B401B5
:1005D00023E096958795779567952A95D1F79B01A6
:1005E000AC010E9466039B01AC016DE056954795F6
:1005F000379527956A95D1F7A0911701B091180109
:100600000E94A3036B017C017CE0F594E794D794EE
:10061000C7947A95D1F7A5019401E2E056954795E4
:1006200037952795EA95D1F7A0911501B09116015C
:100630000E94A3039B01AC01FDE0559547953795BA
:100640002795FA95D1F72C0D3D1D4E1D5F1DC090CD
:100650001301D09014010D2C000CEE08FF082C0D96
:100660003D1D4E1D5F1DA4E0559547953795279577
:10067000AA95D1F7820E931EA41EB51ECD8CDE8CDA
:10068000EF8CF8A02CEAC2162DE0D206E104F104AA
:10069000CCF0289A39EA831635EC9306A104B1040C
:1006A00098F02998FBCDA50194010E947603490199
:1006B0005A01880C991CAA1CBB1C88CF812C912C38
:1006C0005401DCCF2898E6CF299AE8CDDB018F933F
:1006D0009F930E949803BF91AF91A29F800D911D9F
:1006E000A39F900DB29F900D11240895A1E21A2EA0
:1006F000AA1BBB1BFD010DC0AA1FBB1FEE1FFF1FC6
:10070000A217B307E407F50720F0A21BB30BE40B15
:10071000F50B661F771F881F991F1A9469F760955C
:100720007095809590959B01AC01BD01CF01089516
:100730000E94AB03A59F900DB49F900DA49F800DC8
:10074000911D11240895B7FF0C9498030E949803FB
:10075000821B930B0895A29FB001B39FC001A39F7A
:10076000700D811D1124911DB29F700D811D1124EA
:08077000911D0895F894FFCFDC
:00000001FF
