:020000040000FA
:100000000C9434000C9446000C9446000C9446006A
:100010000C9446000C9446000C9446000C94460048
:100020000C9446000C9446000C9446000C94460038
:100030000C9446000C9446000C9446000C94460028
:100040000C9446000C9446000C9446000C94460018
:100050000C9446000C9446000C9446000C94460008
:100060000C9446000C94460011241FBECFEFD8E03C
:10007000DEBFCDBF21E0A0E0B1E001C01D92AC31F8
:10008000B207E1F70E9464000C949C030C940000FA
:1000900084EC8093BC008091BC0087FFFCCF8091F2
:1000A000BB0008958093BB0084E88093BC008091DE
:1000B000BC0087FFFCCF089584EA8093BC00809148
:1000C000BC0087FFFCCF0895CF93DF93CDB7DEB799
:1000D000A0970FB6F894DEBF0FBECDBF0FB6F89451
:1000E000A895809160008861809360001092600004
:1000F0000FBEF89480E880936100109261008FEF4A
:1001000084B915B81092B90088E48093B80084E0EF
:100110008093BC002FEF31EE44E02150304040404E
:10012000E1F700C0000078940E945C008CEE0E9411
:10013000520084EF0E94520087E20E94520084E93C
:100140008093BC000E945C008CEE0E94520088E804
:100150000E9452000E945C008DEE0E9452008E01AF
:100160000F5F1F4F7E0158E1E50EF11C0E94480011
:10017000D8018D938D01AE15BF05C1F784E880933A
:10018000BC008091BC0087FFFCCF8091BB00888FB2
:1001900084E98093BC0089819A81909301018093C6
:1001A00000018B819C8190930301809302018D81DA
:1001B0009E8190930501809304018F81988590938F
:1001C00007018093060189859A85909309018093A0
:1001D00008018B859C8590930B0180930A018D8586
:1001E0009E8590930D0180930C018F859889909343
:1001F0000F0180930E0189899A8990931101809350
:1002000010018B899C8990931301809312018D8931
:100210009E8990931501809314018F89988D9093F6
:10022000170180931601F4E92F2E0E945C008CEEDA
:100230000E94520087EF0E9452000E945C008DEEE7
:100240000E9452000E944800182F0E944800082F68
:100250000E944800382E0E944800F82E0E94480054
:10026000482FB4E8B093BC008091BC0087FFFCCF5E
:100270002091BB002092BC008F2D90E0B0E0A0E068
:10028000FCE0880F991FAA1FBB1FFA95D1F750E019
:1002900070E060E034E0440F551F661F771F3A9509
:1002A000D1F7842B952BA62BB72B30E044E0359566
:1002B00027954A95E1F7032E000C440B550B822B32
:1002C000932BA42BB52B409100015091010170E0BC
:1002D00060E04C015D01E4E0B594A79497948794A5
:1002E000EA95D1F7841A950AA60AB70AF3E0B595FC
:1002F000A79597958795FA95D1F7440F551F661FD7
:10030000771F6C017D01C41AD50AE60AF70AA70116
:100310009601A0910201B09103010E9485036B0137
:100320007C013BE0F594E794D794C7943A95D1F7D4
:10033000A5019401C501B4010E9448039B01AC01D1
:100340006CE055954795379527956A95D1F7A0911B
:100350000401B09105010E948503EEE09595879513
:1003600077956795EA95D1F7C60ED71EE81EF91E58
:10037000C0921801D0921901E0921A01F0921B016B
:10038000A5E0B0E0A70196010E947A032B013C0191
:1003900020E8420E511C611C711CBB2777FCBA95EA
:1003A000A72D962D852D8D8F9E8FAF8FB8A3F59499
:1003B000E794D794C7949AEFD91AE108F108C701D6
:1003C000B601B2E09595879577956795BA95D1F77F
:1003D0009B01AC010E9448032B013C01A0910A0142
:1003E000B0910B01AC019B018DE055954795379578
:1003F00027958A95D1F70E9485034B015C0193E014
:10040000B594A794979487949A95D1F7A0910801F1
:10041000B0910901A70196010E9485039B01AC01DF
:100420005595479537952795280D391D4A1D5B1D14
:1004300072E155954795379527957A95D1F73058BC
:100440004F4F5F4FA0910601B09107010E947A03C0
:100450004B015C01EFE0B594A79497948794EA95DB
:10046000D1F781149104A104B10409F409C1A301D5
:1004700092018BE055954795379527958A95D1F749
:10048000A0911001B09111010E948503698F7A8FAC
:100490008B8F9C8FA0910E01B0910F01A701960147
:1004A0000E948503DC01CB01880F991FAA1FBB1F87
:1004B000C98CDA8CEB8CFC8C8C0D9D1DAE1DBF1D88
:1004C0006C017D0132E0F594E794D794C7943A9596
:1004D000D1F7812F90E0B0E0A0E04CE0880F991FA9
:1004E000AA1FBB1F4A95D1F710E030E020E054E08E
:1004F000000F111F221F331F5A95D1F7082B192BFC
:100500002A2B3B2B832D90E064E0959587956A9587
:10051000E1F7092E000CAA0BBB0BA9019801282BAF
:10052000392B4A2B5B2B80910C0190910D01092EE8
:10053000000CAA0BBB0BDC01992788278C0D9D1D95
:10054000AE1DBF1DECE0B595A79597958795EA95EB
:10055000D1F7280F391F4A1F5B1FABECB3EF0E9486
:100560008803805B9C4397FD80C0660F771F881FC0
:10057000991FA50194010E94580349015A01C50120
:10058000B40123E096958795779567952A95D1F7DD
:100590009B01AC010E9448039B01AC016DE05695A4
:1005A0004795379527956A95D1F7A0911601B09197
:1005B00017010E9485036B017C017CE0F594E794B0
:1005C000D794C7947A95D1F7A5019401E2E05695A6
:1005D000479537952795EA95D1F7A0911401B091E9
:1005E00015010E9485039B01AC01FDE055954795DF
:1005F00037952795FA95D1F72C0D3D1D4E1D5F1DA2
:10060000C0901201D09013010D2C000CEE08FF08D1
:100610002C0D3D1D4E1D5F1DA4E05595479537954A
:100620002795AA95D1F7820E931EA41EB51ECD8CD8
:10063000DE8CEF8CF8A02CEAC2162DE0D206E10485
:10064000F10414F1289A39EA831635EC9306A104D3
:10065000B104E0F029984FEF53ED80E34150504052
:100660008040E1F700C00000E0CDA50194010E94A8
:10067000580349015A01880C991CAA1CBB1C7FCF46
:10068000812C912C5401D3CF2898DDCF299AE3CF28
:10069000DB018F939F930E947A03BF91AF91A29F3A
:1006A000800D911DA39F900DB29F900D1124089570
:1006B000A1E21A2EAA1BBB1BFD010DC0AA1FBB1F66
:1006C000EE1FFF1FA217B307E407F50720F0A21BD8
:1006D000B30BE40BF50B661F771F881F991F1A9445
:1006E00069F760957095809590959B01AC01BD016F
:1006F000CF0108950E948D03A59F900DB49F900D8A
:10070000A49F800D911D11240895B7FF0C947A03C6
:100710000E947A03821B930B0895A29FB001B39F9E
:10072000C001A39F700D811D1124911DB29F700DFA
:0C073000811D1124911D0895F894FFCF45
:107E0000112484B714BE81FFF0D085E080938100F7
:107E100082E08093C00088E18093C10086E0809377
:107E2000C20080E18093C4008EE0C9D0259A86E02C
:107E300020E33CEF91E0309385002093840096BBD3
:107E4000B09BFECF1D9AA8958150A9F7CC24DD24C4
:107E500088248394B5E0AB2EA1E19A2EF3E0BF2EE7
:107E6000A2D0813461F49FD0082FAFD0023811F036
:107E7000013811F484E001C083E08DD089C08234E0
:107E800011F484E103C0853419F485E0A6D080C0E4
:107E9000853579F488D0E82EFF2485D0082F10E0AE
:107EA000102F00270E291F29000F111F8ED06801E7
:107EB0006FC0863521F484E090D080E0DECF843638
:107EC00009F040C070D06FD0082F6DD080E0C81688
:107ED00080E7D80618F4F601B7BEE895C0E0D1E017
:107EE00062D089930C17E1F7F0E0CF16F0E7DF06D8
:107EF00018F0F601B7BEE89568D007B600FCFDCFD4
:107F0000A601A0E0B1E02C9130E011968C91119780
:107F100090E0982F8827822B932B1296FA010C0160
:107F200087BEE89511244E5F5F4FF1E0A038BF0790
:107F300051F7F601A7BEE89507B600FCFDCF97BE46
:107F4000E89526C08437B1F42ED02DD0F82E2BD052
:107F50003CD0F601EF2C8F010F5F1F4F84911BD097
:107F6000EA94F801C1F70894C11CD11CFA94CF0C13
:107F7000D11C0EC0853739F428D08EE10CD085E9AC
:107F80000AD08FE07ACF813511F488E018D01DD067
:107F900080E101D065CF982F8091C00085FFFCCF94
:107FA0009093C60008958091C00087FFFCCF809118
:107FB000C00084FD01C0A8958091C6000895E0E648
:107FC000F0E098E1908380830895EDDF803219F02E
:107FD00088E0F5DFFFCF84E1DECF1F93182FE3DFCA
:107FE0001150E9F7F2DF1F91089580E0E8DFEE27F6
:047FF000FF270994CA
:027FFE00040479
:00000001FF
