:100000000C9434000C9446000C9446000C9446006A
:100010000C9446000C9446000C9446000C94460048
:100020000C9446000C9446000C9446000C94460038
:100030000C9446000C9446000C9446000C94460028
:100040000C9446000C9446000C9446000C94460018
:100050000C9446000C9446000C9446000C94460008
:100060000C9446000C94460011241FBECFEFD8E03C
:10007000DEBFCDBF21E0A0E0B1E001C01D92AC31F8
:10008000B207E1F70E9483000C94A1030C940000D6
:1000900084EC8093BC008091BC0087FFFCCF8091F2
:1000A000BB0008958093BB0084E88093BC008091DE
:1000B000BC0087FFFCCF089584EA8093BC00809148
:1000C000BC0087FFFCCF0895CF93C82F0E945C002F
:1000D0008CEE0E9452008C2F0E9452000E945C0005
:1000E0008DEE0E9452000E94480094E89093BC005C
:1000F0009091BC0097FFFCCF9091BB0024E9209326
:10010000BC00CF910895CF93DF93CDB7DEB72A9788
:100110000FB6F894DEBF0FBECDBF0FB6F894A8950A
:1001200080916000886180936000109260000FBE33
:10013000F89480E880936100109261008FEF84B999
:1001400015B81092B90088E48093B80084E08093D9
:10015000BC002FEF31EE44E0215030404040E1F749
:1001600000C000000E945C008CEE0E94520084EFF0
:100170000E94520087E20E94520084E98093BC00F2
:1001800088E80E94640090930101809300018AE84E
:100190000E94640090930301809302018CE80E9406
:1001A000640090930501809304018EE80E9464002E
:1001B000909307018093060180E90E946400909368
:1001C00009018093080182E90E94640090930B0169
:1001D00080930A0184E90E94640090930D0180934A
:1001E0000C0186E90E94640090930F0180930E0138
:1001F00088E90E94640090931101809310018AE9BC
:100200000E94640090931301809312018CE90E9474
:10021000640090931501809314018EE90E9464009C
:1002200090931701809316017894B4E83B2E04E96B
:100230000E945C008CEE0E94520087EF0E945200E8
:100240000E945C008DEE0E9452000E9448008A8746
:100250000E94480089870E944800182F0E94480089
:10026000F82E0E944800482F3092BC008091BC00BC
:1002700087FFFCCF2091BB000093BC008F2D90E046
:10028000B0E0A0E03CE0880F991FAA1FBB1F3A9581
:10029000D1F750E070E060E0E4E0440F551F661FC6
:1002A000771FEA95D1F7842B952BA62BB72B30E03F
:1002B000F4E035952795FA95E1F7032E000C440BF1
:1002C000550B822B932BA42BB52B40910001509101
:1002D000010170E060E04C015D0124E0B594A79459
:1002E000979487942A95D1F7841A950AA60AB70A93
:1002F00033E0B595A795979587953A95D1F7440F33
:10030000551F661F771F6C017D01C41AD50AE60AC6
:10031000F70AA7019601A0910201B09103010E9482
:100320008A036B017C01FBE0F594E794D794C794B2
:10033000FA95D1F7A5019401C501B4010E944D03BE
:100340009B01AC01ACE05595479537952795AA954B
:10035000D1F7A0910401B09105010E948A03BEE08B
:100360009595879577956795BA95D1F7C60ED71E5F
:10037000E81EF91EC0921801D0921901E0921A01EC
:10038000F0921B01A5E0B0E0A70196010E947F0357
:100390002B013C0120E8420E511C611C711CBB2743
:1003A00077FCBA95A72D962D852D8D839E83AF83DF
:1003B000B887F594E794D794C7949AEFD91AE108CF
:1003C000F108C701B60122E0959587957795679565
:1003D0002A95D1F79B01AC010E944D032B013C01F2
:1003E000A0910A01B0910B01AC019B016DE0559504
:1003F0004795379527956A95D1F70E948A034B0157
:100400005C0173E0B594A794979487947A95D1F79B
:10041000A0910801B0910901A70196010E948A03E9
:100420009B01AC015595479537952795280D391DAA
:100430004A1D5B1DF2E15595479537952795FA952D
:10044000D1F730584F4F5F4FA0910601B09107018F
:100450000E947F034B015C01AFE0B594A794979491
:100460008794AA95D1F781149104A104B10409F4E9
:100470000CC1A30192018BE05595479537952795BF
:100480008A95D1F7A0911001B09111010E948A03C1
:1004900069837A838B839C83A0910E01B0910F01B5
:1004A000A70196010E948A03DC01CB01880F991FE6
:1004B000AA1FBB1FC980DA80EB80FC808C0D9D1DBC
:1004C000AE1DBF1D6C017D0132E0F594E794D79419
:1004D000C7943A95D1F72A85822F90E0B0E0A0E04A
:1004E0004CE0880F991FAA1FBB1F4A95D1F7698559
:1004F000262F30E050E040E064E0220F331F441F1D
:10050000551F6A95D1F7822B932BA42BB52B212F46
:1005100030E074E0359527957A95E1F7A901330F1E
:10052000660B770B9A01AB01282B392B4A2B5B2BDF
:1005300080910C0190910D01092E000CAA0BBB0BB0
:10054000DC01992788278C0D9D1DAE1DBF1DFCE089
:10055000B595A79597958795FA95D1F7280F391FE7
:100560004A1F5B1FABECB3EF0E948D03805B9C4383
:1005700097FD80C0660F771F881F991FA501940102
:100580000E945D0349015A01C501B40123E096951B
:100590008795779567952A95D1F79B01AC010E94C5
:1005A0004D039B01AC016DE0569547953795279516
:1005B0006A95D1F7A0911601B09117010E948A03A4
:1005C0006B017C017CE0F594E794D794C7947A950D
:1005D000D1F7A5019401E2E0569547953795279507
:1005E000EA95D1F7A0911401B09115010E948A03F8
:1005F0009B01AC01FDE05595479537952795FA95F8
:10060000D1F72C0D3D1D4E1D5F1DC0901201D090E5
:1006100013010D2C000CEE08FF082C0D3D1D4E1D86
:100620005F1DA4E05595479537952795AA95D1F775
:10063000820E931EA41EB51ECD80DE80EF80F8844E
:100640002CEAC2162DE0D206E104F10414F1289A36
:1006500039EA831635EC9306A104B104E0F0299839
:100660004FEF53ED60E3415050406040E1F700C070
:100670000000DECDA50194010E945D0349015A01ED
:10068000880C991CAA1CBB1C7FCF812C912C540177
:10069000D3CF2898DDCF299AE3CFDB018F939F93A7
:1006A0000E947F03BF91AF91A29F800D911DA39FD8
:1006B000900DB29F900D11240895A1E21A2EAA1B4D
:1006C000BB1BFD010DC0AA1FBB1FEE1FFF1FA21702
:1006D000B307E407F50720F0A21BB30BE40BF50BFF
:1006E000661F771F881F991F1A9469F76095709588
:1006F000809590959B01AC01BD01CF0108950E94AA
:100700009203A59F900DB49F900DA49F800D911D05
:1007100011240895B7FF0C947F030E947F03821B6E
:10072000930B0895A29FB001B39FC001A39F700DCA
:10073000811D1124911DB29F700D811D1124911DE9
:060740000895F894FFCFBC
:00000001FF
