:100000000C9434000C9451000C9451000C94510049
:100010000C9451000C9451000C9451000C9451001C
:100020000C9451000C9451000C9451000C94B200AB
:100030000C9451000C9451000C9451000C945100FC
:100040000C9451000C9451000C9451000C945100EC
:100050000C9451000C9451000C9451000C945100DC
:100060000C9451000C94510011241FBECFEFD8E026
:10007000DEBFCDBF11E0A0E0B1E0E8E8FBE002C0E8
:1000800005900D92A836B107D9F721E0A8E6B1E0B6
:1000900001C01D92A638B207E1F70E94CC000C9473
:1000A000C2050C94000084EC8093BC008091BC00DD
:1000B00087FFFCCF8091BB0008958093BB0084E84C
:1000C0008093BC008091BC0087FFFCCF089584EA38
:1000D0008093BC008091BC0087FFFCCF0895CF9334
:1000E000DF93D82FC82FC8600E94670080E40E9469
:1000F0005D008C2F0E945D008D2F8C600E945D0042
:1001000085E08A95F1F700008C2F0E945D0084E95C
:100110008093BC00DF91CF910895CF93C82F807F4B
:1001200081600E946F0020E1C29FC00111248160A4
:10013000CF910C946F00CF93DF93EC0189918111E3
:1001400003C0DF91CF9108950E948D00F7CFCF9328
:10015000C82F807F0E946F008C2F8295807FCF9167
:100160000C946F001F920F920FB60F9211248F9371
:10017000809168018F5F809368018091680185306C
:1001800028F01092680181E0809385018F910F9093
:100190000FBE0F901F901895CF93DF93CDB7DEB7AA
:1001A0006F970FB6F894DEBF0FBECDBF0FB6F894B1
:1001B000A895809160008861809360001092600033
:1001C0000FBEF89480E880936100109261008FEF79
:1001D00084B915B81092B90088E48093B80084E01F
:1001E0008093BC0088B1806388B91092800010921F
:1001F00081008091810084608093810080918100E2
:100200008D7F809381008091810081608093810047
:100210008091810088608093810010928500109207
:10022000840089E09DE39093890080938800809109
:100230006F00826080936F0078942FEF30E742E088
:10024000215030404040E1F700C0000083E00E94B0
:10025000A70082E00E94A7008FE39FE10197F1F7DA
:1002600000C0000088E20E94A7008CE00E94A70066
:1002700086E00E94A70081E00E94A700E7ECF0E082
:100280003197F1F700C0000080E40E94A700B0E0C1
:10029000CB2EB1E0DB2E16E0F12E10E000E0F601EF
:1002A000E00FF11F80810E948D000F5F1F4F08300B
:1002B0001105A9F7FA94F8E0CF0ED11CF110EDCF9B
:1002C00080E80E94A7000E9467008CEE0E945D00FB
:1002D00084EF0E945D0087E20E945D0084E98093C4
:1002E000BC000E9467008CEE0E945D0088E80E94BE
:1002F0005D000E9467008DEE0E945D009E012F5FF1
:100300003F4F79016E0138E1C30ED11C1E2D0F2D18
:100310000E945300F70181937F01EC15FD05C1F7A1
:1003200084E88093BC008091BC0087FFFCCF809163
:10033000BB0094E99093BC0029813A8130936A0113
:10034000209369012B813C8130936C0120936B01D8
:100350002D813E8130936E0120936D012F81388570
:100360003093700120936F0129853A853093720193
:10037000209371012B853C85309374012093730188
:100380002D853E8530937601209375012F85388920
:10039000309378012093770129893A8930937A0143
:1003A000209379012B893C8930937C0120937B0138
:1003B0002D893E8930937E0120937D019F89892775
:1003C000982789279093800180937F0183E80E947A
:1003D000A70080E391E00E949B00FFEF27EA31E64F
:1003E000F15020403040E1F700C0000081E00E9461
:1003F000A70087EC90E00197F1F700C0000084E8C7
:100400000E94A7008BE391E00E949B0080EC0E9479
:10041000A70084E491E00E949B00FE013696FA8FCB
:10042000E98F809185018823E1F3109285010E9474
:1004300067008CEE0E945D0087EF0E945D000E94C5
:1004400067008DEE0E945D000E9453008F8F0E9416
:100450005300382E0E945300282E0E945300F82E7D
:100460000E945300F4E8F093BC009091BC0097FF09
:10047000FCCF6091BB00A4E9CA2EC092BC002F2D16
:1004800030E050E040E0BCE0220F331F441F551F16
:10049000BA95D1F790E0B0E0A0E074E0880F991F22
:1004A000AA1FBB1F7A95D1F7822B932BA42BB52BB8
:1004B000262F22952F706C017D01C22AA70196017B
:1004C000C0906901D0906A01F12CE12C49015A01D8
:1004D000E4E0B594A79497948794EA95D1F78C18A3
:1004E0009D08AE08BF08F3E05595479537952795C9
:1004F000FA95D1F7CC0CDD1CEE1CFF1C2C193D0924
:100500004E095F09A0916B01B0916C010E94AB058F
:100510002B013C01BBE07594679457944794BA95BE
:10052000D1F7A5019401C501B4010E944F059B01BB
:10053000AC018CE055954795379527958A95D1F76D
:10054000A0916D01B0916E010E94AB056B017C0121
:100550009EE0F594E794D794C7949A95D1F7C40C8C
:10056000D51CE61CF71CC0928101D0928201E0925A
:100570008301F0928401A5E0B0E0A70196010E94FA
:10058000A0054B015C0120E8820E911CA11CB11C4E
:10059000892C9A2CAB2CBB24A7FCBA94F594E79435
:1005A000D794C7943AEFD31AE108F108C701B6010E
:1005B00042E095958795779567954A95D1F79B0188
:1005C000AC010E944F056B8F7C8F8D8F9E8FA09109
:1005D0007301B09174019B01AC016DE05595479595
:1005E000379527956A95D1F70E94AB052B013C0101
:1005F00073E075946794579447947A95D1F7A091D6
:100600007101B0917201A70196010E94AB059B0197
:10061000AC015595479537952795240D351D461DF9
:10062000571DF2E15595479537952795FA95D1F7DE
:1006300030584F4F5F4FA0916F01B09170010E94F1
:10064000A0052B013C01AFE0759467945794479443
:10065000AA95D1F7411451046104710409F42CC125
:100660002B8D3C8D4D8D5E8D6BE055954795379567
:1006700027956A95D1F7A0917901B0917A010E94EE
:10068000AB056B8F7C8F8D8F9E8FA0917701B09182
:100690007801A70196010E94AB05DC01CB01880F10
:1006A000991FAA1FBB1FCB8CDC8CED8CFE8C8C0D94
:1006B0009D1DAE1DBF1DE2E0B595A7959795879549
:1006C000EA95D1F7232D30E050E040E0F4E0220F2E
:1006D000331F441F551FFA95D1F722946FE026224D
:1006E00022296F8DC62ED12CF12CE12C7CE0CC0C74
:1006F000DD1CEE1CFF1C7A95D1F72C293D294E29D3
:100700005F29C0907501D09076010D2C000CEE0889
:10071000FF087601DD24CC248C0D9D1DAE1DBF1D70
:10072000FCE0B595A79597958795FA95D1F7280F91
:10073000391F4A1F5B1FABECB3EF0E94AE05805B15
:100740009C4397FDAEC0660F771F881F991FA301BA
:1007500092010E945F0529013A01C301B20123E021
:1007600096958795779567952A95D1F79B01AC016A
:100770000E944F059B01AC016DE05695479537955A
:1007800027956A95D1F7A0917F01B09180010E94D1
:10079000AB056B017C017CE0F594E794D794C7949A
:1007A0007A95D1F7A3019201E2E0569547953795E6
:1007B0002795EA95D1F7A0917D01B0917E010E9425
:1007C000AB05FDE09595879577956795FA95D1F7F7
:1007D000C60ED71EE81EF91E80917B0190917C0108
:1007E000092E000CAA0BBB0B8C0D9D1DAE1DBF1D51
:1007F0006C017D01A4E0F594E794D794C794AA9581
:10080000D1F74C0C5D1C6E1C7F1C389A40988FEF02
:1008100099EFE0E081509040E040E1F700C0000037
:10082000409AF0EAFA95F1F738988AEF90E030991B
:1008300047C08AEF90E0309BE3C08AEF90E03099A8
:10084000E3C0E12FF02F87E090E020E0309BFECF67
:1008500035ED3A95F1F70000309B0AC041E050E0D9
:10086000082E01C0440F0A94EAF7242B3099FECFDA
:10087000019760F72193C98CDA8CEC15FD0519F707
:1008800039802A81230D3327331F8B81280F311D97
:100890008C81820F932F911D2D812817190699F4B1
:1008A00013C0A30192010E945F0529013A01440C83
:1008B000551C661C771C51CF412C512C3201A5CF01
:1008C000019709F0B4CF312C2CEA82162DE0920664
:1008D000A104B1040CF49CC0289A39EA431635EC03
:1008E00053066104710408F495C029984DE143153D
:1008F00008F492C02A9A81E00E94A70087EC90E059
:100900000197F1F700C0000080E80E94A70085E58C
:1009100091E00E949B00B7FE0BC08DE20E948D000B
:10092000B094A09490948094811C911CA11CB11C43
:10093000C501B40124E630E040E050E00E948105AA
:1009400069017A014B015C012AE0412F502FC70158
:10095000B6010E940E05812F902F0E949B008EE20F
:100960000E948D009AE089169104A104B1041CF440
:1009700080E30E948D002AE0412F502FC501B40171
:100980000E940E05812F902F0E949B008FED0E94E8
:100990008D0089E591E00E949B008BE591E00E942B
:1009A0009B00632D70E090E080E02AE0412F502F03
:1009B0000E940E05812F902F0E949B0085E20E94CD
:1009C0008D0080EC0E94A7008FE591E00E949B00C3
:1009D000C301B20124E630E040E050E00E945F0530
:1009E000CA01B9012AE0412F502F0E940E05812F24
:1009F000902F0E949B0083E691E00E949B0011CD06
:100A0000019709F018CF5FCF019709F018CF5BCF9E
:100A1000289863CF299A6ACF2A986DCFBB272A30AE
:100A200051F4992342F4BDE29095809570956195BB
:100A30007F4F8F4F9F4F0C941E05BB27FA01A62FA7
:100A40006217710581059105330B30FB66F0AA270B
:100A5000660F771F881F991FAA1FA21710F0A21BED
:100A600063953850A9F7A05DAA3308F0A95DA1935A
:100A700036F7B111B1931082CA010C943F05DC0125
:100A8000FC01672F71917723E1F7329704C07C91C5
:100A90006D9370836291AE17BF07C8F30895DB01B1
:100AA0008F939F930E94A005BF91AF91A29F800D4D
:100AB000911DA39F900DB29F900D11240895A1E266
:100AC0001A2EAA1BBB1BFD010DC0AA1FBB1FEE1FC8
:100AD000FF1FA217B307E407F50720F0A21BB30B13
:100AE000E40BF50B661F771F881F991F1A9469F78F
:100AF00060957095809590959B01AC01BD01CF01EB
:100B00000895052E97FB1EF400940E94980557FD4A
:100B100007D00E945F0507FC03D04EF40C949805A3
:100B200050954095309521953F4F4F4F5F4F089519
:100B300090958095709561957F4F8F4F9F4F089549
:100B40000E94B305A59F900DB49F900DA49F800DAA
:100B5000911D11240895B7FF0C94A0050E94A005D3
:100B6000821B930B0895A29FB001B39FC001A39F66
:100B7000700D811D1124911DB29F700D811D1124D6
:080B8000911D0895F894FFCFC8
:100B88000103030E1C180808111F00001F11080498
:100B98001018180E0703020208181C0E03030100A0
:100BA80008111F00001F11000203070E181810007B
:100BB8002D2D2055464241202D2D00536973746513
:100BC8006D6173004D6963726F636F6E74726F6CE1
:100BD80061646F7300543A2000430020483A005083
:080BE8003A2000206850610072
:00000001FF
